{
  "_format": "hh-sol-artifact-1",
  "contractName": "Swapping",
  "sourceName": "contracts/swap.sol",
  "abi": [
    {
      "inputs": [],
      "stateMutability": "nonpayable",
      "type": "constructor"
    },
    {
      "anonymous": false,
      "inputs": [
        {
          "indexed": true,
          "internalType": "address",
          "name": "previousOwner",
          "type": "address"
        },
        {
          "indexed": true,
          "internalType": "address",
          "name": "newOwner",
          "type": "address"
        }
      ],
      "name": "OwnershipTransferred",
      "type": "event"
    },
    {
      "inputs": [
        {
          "internalType": "uint256",
          "name": "swapId",
          "type": "uint256"
        }
      ],
      "name": "applySwap",
      "outputs": [],
      "stateMutability": "payable",
      "type": "function"
    },
    {
      "inputs": [
        {
          "internalType": "address",
          "name": "",
          "type": "address"
        },
        {
          "internalType": "address",
          "name": "",
          "type": "address"
        },
        {
          "internalType": "uint256",
          "name": "",
          "type": "uint256"
        },
        {
          "internalType": "bytes",
          "name": "",
          "type": "bytes"
        }
      ],
      "name": "onERC721Received",
      "outputs": [
        {
          "internalType": "bytes4",
          "name": "",
          "type": "bytes4"
        }
      ],
      "stateMutability": "nonpayable",
      "type": "function"
    },
    {
      "inputs": [],
      "name": "owner",
      "outputs": [
        {
          "internalType": "address",
          "name": "",
          "type": "address"
        }
      ],
      "stateMutability": "view",
      "type": "function"
    },
    {
      "inputs": [
        {
          "internalType": "address",
          "name": "sourceAddr",
          "type": "address"
        },
        {
          "internalType": "uint256",
          "name": "sourceId",
          "type": "uint256"
        },
        {
          "internalType": "address",
          "name": "targetAddr",
          "type": "address"
        },
        {
          "internalType": "uint256",
          "name": "targetTokenId",
          "type": "uint256"
        }
      ],
      "name": "registerSwap",
      "outputs": [
        {
          "internalType": "uint256",
          "name": "",
          "type": "uint256"
        }
      ],
      "stateMutability": "nonpayable",
      "type": "function"
    },
    {
      "inputs": [
        {
          "internalType": "address",
          "name": "targetAddr",
          "type": "address"
        },
        {
          "internalType": "uint256",
          "name": "targetTokenId",
          "type": "uint256"
        }
      ],
      "name": "registerSwap",
      "outputs": [
        {
          "internalType": "uint256",
          "name": "",
          "type": "uint256"
        }
      ],
      "stateMutability": "payable",
      "type": "function"
    },
    {
      "inputs": [
        {
          "internalType": "address",
          "name": "sourceAddr",
          "type": "address"
        },
        {
          "internalType": "uint256",
          "name": "sourceId",
          "type": "uint256"
        },
        {
          "internalType": "uint256",
          "name": "ethValue",
          "type": "uint256"
        }
      ],
      "name": "registerSwapNFT",
      "outputs": [
        {
          "internalType": "uint256",
          "name": "",
          "type": "uint256"
        }
      ],
      "stateMutability": "nonpayable",
      "type": "function"
    },
    {
      "inputs": [],
      "name": "renounceOwnership",
      "outputs": [],
      "stateMutability": "nonpayable",
      "type": "function"
    },
    {
      "inputs": [
        {
          "internalType": "address",
          "name": "newOwner",
          "type": "address"
        }
      ],
      "name": "transferOwnership",
      "outputs": [],
      "stateMutability": "nonpayable",
      "type": "function"
    },
    {
      "inputs": [],
      "name": "withdraw",
      "outputs": [],
      "stateMutability": "payable",
      "type": "function"
    },
    {
      "inputs": [
        {
          "internalType": "address",
          "name": "_NFTaddress",
          "type": "address"
        },
        {
          "internalType": "uint256",
          "name": "_nftTokenID",
          "type": "uint256"
        }
      ],
      "name": "withdrawNFT",
      "outputs": [
        {
          "internalType": "bool",
          "name": "",
          "type": "bool"
        }
      ],
      "stateMutability": "nonpayable",
      "type": "function"
    }
  ],
  "bytecode": "0x608060405234801561001057600080fd5b5061002d61002261003a60201b60201c565b61004260201b60201c565b6000600281905550610106565b600033905090565b60008060009054906101000a900473ffffffffffffffffffffffffffffffffffffffff169050816000806101000a81548173ffffffffffffffffffffffffffffffffffffffff021916908373ffffffffffffffffffffffffffffffffffffffff1602179055508173ffffffffffffffffffffffffffffffffffffffff168173ffffffffffffffffffffffffffffffffffffffff167f8be0079c531659141344cd1fd0a4f28419497f9722a3daafe3b4186f6b6457e060405160405180910390a35050565b6116e7806101156000396000f3fe6080604052600436106100915760003560e01c806365680bb51161005957806365680bb5146101735780637137dc95146101a3578063715018a6146101e05780638da5cb5b146101f7578063f2fde38b1461022257610091565b8063150b7a02146100965780633c6a8a7e146100d35780633ccfd60b14610110578063428a8be71461011a5780636088e93a14610136575b600080fd5b3480156100a257600080fd5b506100bd60048036038101906100b89190610e93565b61024b565b6040516100ca91906111fb565b60405180910390f35b3480156100df57600080fd5b506100fa60048036038101906100f59190610f4a565b61025f565b60405161010791906112f6565b60405180910390f35b610118610494565b005b610134600480360381019061012f9190610ffc565b61060f565b005b34801561014257600080fd5b5061015d60048036038101906101589190610f0e565b610853565b60405161016a91906111e0565b60405180910390f35b61018d60048036038101906101889190610f0e565b610957565b60405161019a91906112f6565b60405180910390f35b3480156101af57600080fd5b506101ca60048036038101906101c59190610fad565b610a5f565b6040516101d791906112f6565b60405180910390f35b3480156101ec57600080fd5b506101f5610b25565b005b34801561020357600080fd5b5061020c610bad565b604051610219919061118e565b60405180910390f35b34801561022e57600080fd5b5061024960048036038101906102449190610e41565b610bd6565b005b600063150b7a0260e01b9050949350505050565b60008060025490506002600081548092919061027a90611437565b919050555060006003600083815260200190815260200160002081905550856004600083815260200190815260200160002060006101000a81548173ffffffffffffffffffffffffffffffffffffffff021916908373ffffffffffffffffffffffffffffffffffffffff160217905550846005600083815260200190815260200160002081905550836006600083815260200190815260200160002060006101000a81548173ffffffffffffffffffffffffffffffffffffffff021916908373ffffffffffffffffffffffffffffffffffffffff16021790555082600760008381526020019081526020016000208190555060016008600083815260200190815260200160002081905550600086905060008173ffffffffffffffffffffffffffffffffffffffff16636352211e886040518263ffffffff1660e01b81526004016103c591906112f6565b60206040518083038186803b1580156103dd57600080fd5b505afa1580156103f1573d6000803e3d6000fd5b505050506040513d601f19601f820116820180604052508101906104159190610e6a565b90508173ffffffffffffffffffffffffffffffffffffffff166323b872dd82308a6040518463ffffffff1660e01b8152600401610454939291906111a9565b600060405180830381600087803b15801561046e57600080fd5b505af1158015610482573d6000803e3d6000fd5b50505050829350505050949350505050565b61049c610cce565b73ffffffffffffffffffffffffffffffffffffffff166104ba610bad565b73ffffffffffffffffffffffffffffffffffffffff1614610510576040517f08c379a0000000000000000000000000000000000000000000000000000000008152600401610507906112d6565b60405180910390fd5b600047905060008111610558576040517f08c379a000000000000000000000000000000000000000000000000000000000815260040161054f906112b6565b60405180910390fd5b6000610562610cce565b73ffffffffffffffffffffffffffffffffffffffff168260405161058590611179565b60006040518083038185875af1925050503d80600081146105c2576040519150601f19603f3d011682016040523d82523d6000602084013e6105c7565b606091505b505090508061060b576040517f08c379a000000000000000000000000000000000000000000000000000000000815260040161060290611276565b60405180910390fd5b5050565b600160086000838152602001908152602001600020541480610644575060026008600083815260200190815260200160002054145b610683576040517f08c379a000000000000000000000000000000000000000000000000000000000815260040161067a90611236565b60405180910390fd5b6001600860008381526020019081526020016000205414156107f95760006006600083815260200190815260200160002060009054906101000a900473ffffffffffffffffffffffffffffffffffffffff169050600060076000848152602001908152602001600020549050600082905060008173ffffffffffffffffffffffffffffffffffffffff16636352211e846040518263ffffffff1660e01b815260040161072f91906112f6565b60206040518083038186803b15801561074757600080fd5b505afa15801561075b573d6000803e3d6000fd5b505050506040513d601f19601f8201168201806040525081019061077f9190610e6a565b90508173ffffffffffffffffffffffffffffffffffffffff166323b872dd8230866040518463ffffffff1660e01b81526004016107be939291906111a9565b600060405180830381600087803b1580156107d857600080fd5b505af11580156107ec573d6000803e3d6000fd5b5050505050505050610850565b600360008281526020019081526020016000205434101561084f576040517f08c379a000000000000000000000000000000000000000000000000000000000815260040161084690611296565b60405180910390fd5b5b50565b600061085d610cce565b73ffffffffffffffffffffffffffffffffffffffff1661087b610bad565b73ffffffffffffffffffffffffffffffffffffffff16146108d1576040517f08c379a00000000000000000000000000000000000000000000000000000000081526004016108c8906112d6565b60405180910390fd5b60008390508073ffffffffffffffffffffffffffffffffffffffff166342842e0e306108fb610cce565b866040518463ffffffff1660e01b815260040161091a939291906111a9565b600060405180830381600087803b15801561093457600080fd5b505af1158015610948573d6000803e3d6000fd5b50505050600191505092915050565b600080341161099b576040517f08c379a000000000000000000000000000000000000000000000000000000000815260040161099290611216565b60405180910390fd5b60006002549050600260008154809291906109b590611437565b9190505550346003600083815260200190815260200160002081905550836006600083815260200190815260200160002060006101000a81548173ffffffffffffffffffffffffffffffffffffffff021916908373ffffffffffffffffffffffffffffffffffffffff160217905550826007600083815260200190815260200160002081905550600160086000838152602001908152602001600020819055508091505092915050565b600080600254905060026000815480929190610a7a90611437565b9190505550826003600083815260200190815260200160002081905550846004600083815260200190815260200160002060006101000a81548173ffffffffffffffffffffffffffffffffffffffff021916908373ffffffffffffffffffffffffffffffffffffffff16021790555083600560008381526020019081526020016000208190555060026008600083815260200190815260200160002081905550809150509392505050565b610b2d610cce565b73ffffffffffffffffffffffffffffffffffffffff16610b4b610bad565b73ffffffffffffffffffffffffffffffffffffffff1614610ba1576040517f08c379a0000000000000000000000000000000000000000000000000000000008152600401610b98906112d6565b60405180910390fd5b610bab6000610cd6565b565b60008060009054906101000a900473ffffffffffffffffffffffffffffffffffffffff16905090565b610bde610cce565b73ffffffffffffffffffffffffffffffffffffffff16610bfc610bad565b73ffffffffffffffffffffffffffffffffffffffff1614610c52576040517f08c379a0000000000000000000000000000000000000000000000000000000008152600401610c49906112d6565b60405180910390fd5b600073ffffffffffffffffffffffffffffffffffffffff168173ffffffffffffffffffffffffffffffffffffffff161415610cc2576040517f08c379a0000000000000000000000000000000000000000000000000000000008152600401610cb990611256565b60405180910390fd5b610ccb81610cd6565b50565b600033905090565b60008060009054906101000a900473ffffffffffffffffffffffffffffffffffffffff169050816000806101000a81548173ffffffffffffffffffffffffffffffffffffffff021916908373ffffffffffffffffffffffffffffffffffffffff1602179055508173ffffffffffffffffffffffffffffffffffffffff168173ffffffffffffffffffffffffffffffffffffffff167f8be0079c531659141344cd1fd0a4f28419497f9722a3daafe3b4186f6b6457e060405160405180910390a35050565b6000610dad610da884611336565b611311565b905082815260208101848484011115610dc557600080fd5b610dd08482856113f7565b509392505050565b600081359050610de781611683565b92915050565b600081519050610dfc81611683565b92915050565b600082601f830112610e1357600080fd5b8135610e23848260208601610d9a565b91505092915050565b600081359050610e3b8161169a565b92915050565b600060208284031215610e5357600080fd5b6000610e6184828501610dd8565b91505092915050565b600060208284031215610e7c57600080fd5b6000610e8a84828501610ded565b91505092915050565b60008060008060808587031215610ea957600080fd5b6000610eb787828801610dd8565b9450506020610ec887828801610dd8565b9350506040610ed987828801610e2c565b925050606085013567ffffffffffffffff811115610ef657600080fd5b610f0287828801610e02565b91505092959194509250565b60008060408385031215610f2157600080fd5b6000610f2f85828601610dd8565b9250506020610f4085828601610e2c565b9150509250929050565b60008060008060808587031215610f6057600080fd5b6000610f6e87828801610dd8565b9450506020610f7f87828801610e2c565b9350506040610f9087828801610dd8565b9250506060610fa187828801610e2c565b91505092959194509250565b600080600060608486031215610fc257600080fd5b6000610fd086828701610dd8565b9350506020610fe186828701610e2c565b9250506040610ff286828701610e2c565b9150509250925092565b60006020828403121561100e57600080fd5b600061101c84828501610e2c565b91505092915050565b61102e81611383565b82525050565b61103d81611395565b82525050565b61104c816113a1565b82525050565b600061105f602383611372565b915061106a826114ef565b604082019050919050565b6000611082600f83611372565b915061108d8261153e565b602082019050919050565b60006110a5602683611372565b91506110b082611567565b604082019050919050565b60006110c8600f83611372565b91506110d3826115b6565b602082019050919050565b60006110eb603183611372565b91506110f6826115df565b604082019050919050565b600061110e601983611372565b91506111198261162e565b602082019050919050565b6000611131602083611372565b915061113c82611657565b602082019050919050565b6000611154600083611367565b915061115f82611680565b600082019050919050565b611173816113ed565b82525050565b600061118482611147565b9150819050919050565b60006020820190506111a36000830184611025565b92915050565b60006060820190506111be6000830186611025565b6111cb6020830185611025565b6111d8604083018461116a565b949350505050565b60006020820190506111f56000830184611034565b92915050565b60006020820190506112106000830184611043565b92915050565b6000602082019050818103600083015261122f81611052565b9050919050565b6000602082019050818103600083015261124f81611075565b9050919050565b6000602082019050818103600083015261126f81611098565b9050919050565b6000602082019050818103600083015261128f816110bb565b9050919050565b600060208201905081810360008301526112af816110de565b9050919050565b600060208201905081810360008301526112cf81611101565b9050919050565b600060208201905081810360008301526112ef81611124565b9050919050565b600060208201905061130b600083018461116a565b92915050565b600061131b61132c565b90506113278282611406565b919050565b6000604051905090565b600067ffffffffffffffff821115611351576113506114af565b5b61135a826114de565b9050602081019050919050565b600081905092915050565b600082825260208201905092915050565b600061138e826113cd565b9050919050565b60008115159050919050565b60007fffffffff0000000000000000000000000000000000000000000000000000000082169050919050565b600073ffffffffffffffffffffffffffffffffffffffff82169050919050565b6000819050919050565b82818337600083830152505050565b61140f826114de565b810181811067ffffffffffffffff8211171561142e5761142d6114af565b5b80604052505050565b6000611442826113ed565b91507fffffffffffffffffffffffffffffffffffffffffffffffffffffffffffffffff82141561147557611474611480565b5b600182019050919050565b7f4e487b7100000000000000000000000000000000000000000000000000000000600052601160045260246000fd5b7f4e487b7100000000000000000000000000000000000000000000000000000000600052604160045260246000fd5b6000601f19601f8301169050919050565b7f457468657220616d6f756e74206d75737420626520677265617465722074686160008201527f6e20300000000000000000000000000000000000000000000000000000000000602082015250565b7f496e76616c696420737761702049440000000000000000000000000000000000600082015250565b7f4f776e61626c653a206e6577206f776e657220697320746865207a65726f206160008201527f6464726573730000000000000000000000000000000000000000000000000000602082015250565b7f5472616e73666572206661696c65640000000000000000000000000000000000600082015250565b7f45746865722076616c7565206d7573742062652067726561746572207468616e60008201527f20737761702065746865722076616c7565000000000000000000000000000000602082015250565b7f4e6f206574686572206c65667420746f20776974686472617700000000000000600082015250565b7f4f776e61626c653a2063616c6c6572206973206e6f7420746865206f776e6572600082015250565b50565b61168c81611383565b811461169757600080fd5b50565b6116a3816113ed565b81146116ae57600080fd5b5056fea2646970667358221220b20f7b2f6e07554c059574ef5494a4cbe86c49614542c064d36cc3c76728e97864736f6c63430008040033",
  "linkReferences": {},
  "deployedLinkReferences": {}
}